{
  "contractName": "FairPlay",
  "abi": [
    {
      "inputs": [
        {
          "name": "_merketRoot",
          "type": "bytes32"
        },
        {
          "name": "_dataPacketsCount",
          "type": "uint256"
        }
      ],
      "payable": true,
      "stateMutability": "payable",
      "type": "constructor"
    },
    {
      "anonymous": false,
      "inputs": [
        {
          "indexed": false,
          "name": "_client",
          "type": "address"
        }
      ],
      "name": "EnterStream",
      "type": "event"
    },
    {
      "constant": false,
      "inputs": [],
      "name": "enter",
      "outputs": [],
      "payable": true,
      "stateMutability": "payable",
      "type": "function"
    },
    {
      "constant": true,
      "inputs": [],
      "name": "getChainStateData",
      "outputs": [
        {
          "components": [
            {
              "name": "merchant",
              "type": "address"
            },
            {
              "name": "client",
              "type": "address"
            },
            {
              "name": "merkelRoot",
              "type": "bytes32"
            },
            {
              "name": "price",
              "type": "uint256"
            },
            {
              "name": "dataPacketsCount",
              "type": "uint256"
            },
            {
              "name": "contractAddress",
              "type": "address"
            },
            {
              "name": "timeout",
              "type": "uint256"
            },
            {
              "name": "cashOutDisputeNonce",
              "type": "uint256"
            },
            {
              "name": "contentDisputeDataPacket",
              "type": "string"
            }
          ],
          "name": "",
          "type": "tuple"
        }
      ],
      "payable": false,
      "stateMutability": "view",
      "type": "function"
    },
    {
      "constant": true,
      "inputs": [
        {
          "components": [
            {
              "name": "nonce",
              "type": "uint256"
            },
            {
              "name": "dataPacket",
              "type": "string"
            }
          ],
          "name": "appState",
          "type": "tuple"
        }
      ],
      "name": "stateToDigest",
      "outputs": [
        {
          "name": "",
          "type": "bytes32"
        }
      ],
      "payable": false,
      "stateMutability": "view",
      "type": "function"
    },
    {
      "constant": false,
      "inputs": [
        {
          "components": [
            {
              "name": "nonce",
              "type": "uint256"
            },
            {
              "name": "dataPacket",
              "type": "string"
            }
          ],
          "name": "appState",
          "type": "tuple"
        }
      ],
      "name": "clientInitCashOut",
      "outputs": [],
      "payable": false,
      "stateMutability": "nonpayable",
      "type": "function"
    },
    {
      "constant": false,
      "inputs": [],
      "name": "clientClaimFunds",
      "outputs": [],
      "payable": false,
      "stateMutability": "nonpayable",
      "type": "function"
    },
    {
      "constant": false,
      "inputs": [
        {
          "components": [
            {
              "name": "nonce",
              "type": "uint256"
            },
            {
              "name": "dataPacket",
              "type": "string"
            }
          ],
          "name": "appState",
          "type": "tuple"
        },
        {
          "name": "sig",
          "type": "bytes"
        }
      ],
      "name": "disputeCashOut",
      "outputs": [],
      "payable": false,
      "stateMutability": "nonpayable",
      "type": "function"
    },
    {
      "constant": false,
      "inputs": [
        {
          "components": [
            {
              "name": "nonce",
              "type": "uint256"
            },
            {
              "name": "dataPacket",
              "type": "string"
            }
          ],
          "name": "appState",
          "type": "tuple"
        },
        {
          "name": "sig",
          "type": "bytes"
        }
      ],
      "name": "merchantCashOut",
      "outputs": [],
      "payable": false,
      "stateMutability": "nonpayable",
      "type": "function"
    },
    {
      "constant": false,
      "inputs": [
        {
          "components": [
            {
              "name": "nonce",
              "type": "uint256"
            },
            {
              "name": "dataPacket",
              "type": "string"
            }
          ],
          "name": "appState",
          "type": "tuple"
        },
        {
          "name": "sig",
          "type": "bytes"
        }
      ],
      "name": "disputeContent",
      "outputs": [],
      "payable": false,
      "stateMutability": "nonpayable",
      "type": "function"
    },
    {
      "constant": false,
      "inputs": [
        {
          "name": "user",
          "type": "address"
        }
      ],
      "name": "counterPartyOf",
      "outputs": [
        {
          "name": "",
          "type": "address"
        }
      ],
      "payable": false,
      "stateMutability": "nonpayable",
      "type": "function"
    },
    {
      "constant": false,
      "inputs": [
        {
          "name": "sig",
          "type": "bytes"
        }
      ],
      "name": "splitSignature",
      "outputs": [
        {
          "name": "",
          "type": "uint8"
        },
        {
          "name": "",
          "type": "bytes32"
        },
        {
          "name": "",
          "type": "bytes32"
        }
      ],
      "payable": false,
      "stateMutability": "nonpayable",
      "type": "function"
    },
    {
      "constant": false,
      "inputs": [
        {
          "name": "message",
          "type": "bytes32"
        },
        {
          "name": "sig",
          "type": "bytes"
        }
      ],
      "name": "recoverSigner",
      "outputs": [
        {
          "name": "",
          "type": "address"
        }
      ],
      "payable": false,
      "stateMutability": "nonpayable",
      "type": "function"
    }
  ],
  "bytecode": "0x6080604052604051604080620017c98339810180604052620000259190810190620002d3565b610120604051908101604052803373ffffffffffffffffffffffffffffffffffffffff168152602001600073ffffffffffffffffffffffffffffffffffffffff168152602001836000191681526020013481526020018281526020013073ffffffffffffffffffffffffffffffffffffffff168152602001600081526020016000815260200160206040519081016040528060008152508152506000808201518160000160006101000a81548173ffffffffffffffffffffffffffffffffffffffff021916908373ffffffffffffffffffffffffffffffffffffffff16021790555060208201518160010160006101000a81548173ffffffffffffffffffffffffffffffffffffffff021916908373ffffffffffffffffffffffffffffffffffffffff16021790555060408201518160020190600019169055606082015181600301556080820151816004015560a08201518160050160006101000a81548173ffffffffffffffffffffffffffffffffffffffff021916908373ffffffffffffffffffffffffffffffffffffffff16021790555060c0820151816006015560e08201518160070155610100820151816008019080519060200190620001ec929190620001f8565b50905050505062000328565b828054600181600116156101000203166002900490600052602060002090601f016020900481019282601f106200023b57805160ff19168380011785556200026c565b828001600101855582156200026c579182015b828111156200026b5782518255916020019190600101906200024e565b5b5090506200027b91906200027f565b5090565b620002a491905b80821115620002a057600081600090555060010162000286565b5090565b90565b6000620002b5825162000314565b905092915050565b6000620002cb82516200031e565b905092915050565b60008060408385031215620002e757600080fd5b6000620002f785828601620002a7565b92505060206200030a85828601620002bd565b9150509250929050565b6000819050919050565b6000819050919050565b61149180620003386000396000f3006080604052600436106100af576000357c0100000000000000000000000000000000000000000000000000000000900463ffffffff1680632846e1b5146100b45780635228831c146100dd57806353bfd508146101065780638ed8da6c1461012f5780639051098b1461016c57806397aba7f914610195578063a7bb5803146101d2578063b557647514610211578063dcac41251461024e578063e71cdb7014610265578063e97dcb6214610290575b600080fd5b3480156100c057600080fd5b506100db60048036036100d69190810190611029565b61029a565b005b3480156100e957600080fd5b5061010460048036036100ff9190810190611029565b61039a565b005b34801561011257600080fd5b5061012d60048036036101289190810190610fe8565b610481565b005b34801561013b57600080fd5b5061015660048036036101519190810190610fe8565b6104ff565b6040516101639190611224565b60405180910390f35b34801561017857600080fd5b50610193600480360361018e9190810190611029565b610614565b005b3480156101a157600080fd5b506101bc60048036036101b79190810190610f53565b610700565b6040516101c99190611209565b60405180910390f35b3480156101de57600080fd5b506101f960048036036101f49190810190610fa7565b610777565b604051610208939291906112c8565b60405180910390f35b34801561021d57600080fd5b5061023860048036036102339190810190610f2a565b6107bb565b6040516102459190611209565b60405180910390f35b34801561025a57600080fd5b506102636108da565b005b34801561027157600080fd5b5061027a610910565b60405161028791906112a6565b60405180910390f35b610298610b0a565b005b60008060060154421015156102ae57600080fd5b600080600701541115156102c157600080fd5b6000800160009054906101000a900473ffffffffffffffffffffffffffffffffffffffff1673ffffffffffffffffffffffffffffffffffffffff163373ffffffffffffffffffffffffffffffffffffffff1614151561031f57600080fd5b610328836104ff565b9050610333336107bb565b73ffffffffffffffffffffffffffffffffffffffff166103538284610700565b73ffffffffffffffffffffffffffffffffffffffff1614151561037557600080fd5b6000600701548360000151111561039557610394600060040154610b9a565b5b505050565b60008060010160009054906101000a900473ffffffffffffffffffffffffffffffffffffffff1673ffffffffffffffffffffffffffffffffffffffff163373ffffffffffffffffffffffffffffffffffffffff161415156103fa57600080fd5b610403836104ff565b905061040e336107bb565b73ffffffffffffffffffffffffffffffffffffffff1661042e8284610700565b73ffffffffffffffffffffffffffffffffffffffff1614151561045057600080fd5b82602001516000600801908051906020019061046d929190610ca7565b50610e104201600060060181905550505050565b600060010160009054906101000a900473ffffffffffffffffffffffffffffffffffffffff1673ffffffffffffffffffffffffffffffffffffffff163373ffffffffffffffffffffffffffffffffffffffff161415156104e057600080fd5b8060000151600060070181905550610e10420160006006018190555050565b600080826040516020016105139190611284565b6040516020818303038152906040526040518082805190602001908083835b6020831015156105575780518252602082019150602081019050602083039250610532565b6001836020036101000a03801982511681845116808217855250505050505090500191505060405180910390209050600060050160009054906101000a900473ffffffffffffffffffffffffffffffffffffffff1681604051808373ffffffffffffffffffffffffffffffffffffffff1673ffffffffffffffffffffffffffffffffffffffff166c010000000000000000000000000281526014018260001916600019168152602001925050506040518091039020915050919050565b60008060000160009054906101000a900473ffffffffffffffffffffffffffffffffffffffff1673ffffffffffffffffffffffffffffffffffffffff163373ffffffffffffffffffffffffffffffffffffffff1614151561067457600080fd5b60006004015483600001511415610697576106928360000151610b9a565b6106fb565b6106a0836104ff565b90506106ab336107bb565b73ffffffffffffffffffffffffffffffffffffffff166106cb8284610700565b73ffffffffffffffffffffffffffffffffffffffff161415156106ed57600080fd5b6106fa8360000151610b9a565b5b505050565b60008060008061070f85610777565b8093508194508295505050506001868484846040516000815260200160405260405161073e949392919061123f565b60206040516020810390808403906000865af1158015610762573d6000803e3d6000fd5b50505060206040510351935050505092915050565b6000806000806000806041875114151561079057600080fd5b6020870151925060408701519150606087015160001a90508083839550955095505050509193909250565b60008060000160009054906101000a900473ffffffffffffffffffffffffffffffffffffffff1673ffffffffffffffffffffffffffffffffffffffff168273ffffffffffffffffffffffffffffffffffffffff16141561084257600060010160009054906101000a900473ffffffffffffffffffffffffffffffffffffffff1690506108d5565b600060010160009054906101000a900473ffffffffffffffffffffffffffffffffffffffff1673ffffffffffffffffffffffffffffffffffffffff168273ffffffffffffffffffffffffffffffffffffffff1614156108c7576000800160009054906101000a900473ffffffffffffffffffffffffffffffffffffffff1690506108d5565b600015156108d457600080fd5b5b919050565b600060060154421115156108ed57600080fd5b6000806007015411151561090057600080fd5b61090e600060070154610b9a565b565b610918610d27565b600061012060405190810160405290816000820160009054906101000a900473ffffffffffffffffffffffffffffffffffffffff1673ffffffffffffffffffffffffffffffffffffffff1673ffffffffffffffffffffffffffffffffffffffff1681526020016001820160009054906101000a900473ffffffffffffffffffffffffffffffffffffffff1673ffffffffffffffffffffffffffffffffffffffff1673ffffffffffffffffffffffffffffffffffffffff16815260200160028201546000191660001916815260200160038201548152602001600482015481526020016005820160009054906101000a900473ffffffffffffffffffffffffffffffffffffffff1673ffffffffffffffffffffffffffffffffffffffff1673ffffffffffffffffffffffffffffffffffffffff1681526020016006820154815260200160078201548152602001600882018054600181600116156101000203166002900480601f016020809104026020016040519081016040528092919081815260200182805460018160011615610100020316600290048015610afc5780601f10610ad157610100808354040283529160200191610afc565b820191906000526020600020905b815481529060010190602001808311610adf57829003601f168201915b505050505081525050905090565b60006003015434141515610b1d57600080fd5b33600060010160006101000a81548173ffffffffffffffffffffffffffffffffffffffff021916908373ffffffffffffffffffffffffffffffffffffffff1602179055507f2c7b8fff535c1d02c329deb5971421ee49f0e31c288110018d149cb704797b2833604051610b909190611209565b60405180910390a1565b60008060040154600060030154811515610bb057fe5b049050600060010160009054906101000a900473ffffffffffffffffffffffffffffffffffffffff1673ffffffffffffffffffffffffffffffffffffffff166108fc8383029081150290604051600060405180830381858888f19350505050158015610c20573d6000803e3d6000fd5b506000800160009054906101000a900473ffffffffffffffffffffffffffffffffffffffff1673ffffffffffffffffffffffffffffffffffffffff166108fc3073ffffffffffffffffffffffffffffffffffffffff16319081150290604051600060405180830381858888f19350505050158015610ca2573d6000803e3d6000fd5b505050565b828054600181600116156101000203166002900490600052602060002090601f016020900481019282601f10610ce857805160ff1916838001178555610d16565b82800160010185558215610d16579182015b82811115610d15578251825591602001919060010190610cfa565b5b509050610d239190610db9565b5090565b61012060405190810160405280600073ffffffffffffffffffffffffffffffffffffffff168152602001600073ffffffffffffffffffffffffffffffffffffffff168152602001600080191681526020016000815260200160008152602001600073ffffffffffffffffffffffffffffffffffffffff1681526020016000815260200160008152602001606081525090565b610ddb91905b80821115610dd7576000816000905550600101610dbf565b5090565b90565b6000610dea82356113d0565b905092915050565b6000610dfe82356113f0565b905092915050565b600082601f8301121515610e1957600080fd5b8135610e2c610e278261132c565b6112ff565b91508082526020830160208301858383011115610e4857600080fd5b610e53838284611404565b50505092915050565b600082601f8301121515610e6f57600080fd5b8135610e82610e7d82611358565b6112ff565b91508082526020830160208301858383011115610e9e57600080fd5b610ea9838284611404565b50505092915050565b600060408284031215610ec457600080fd5b610ece60406112ff565b90506000610ede84828501610f16565b600083015250602082013567ffffffffffffffff811115610efe57600080fd5b610f0a84828501610e5c565b60208301525092915050565b6000610f2282356113fa565b905092915050565b600060208284031215610f3c57600080fd5b6000610f4a84828501610dde565b91505092915050565b60008060408385031215610f6657600080fd5b6000610f7485828601610df2565b925050602083013567ffffffffffffffff811115610f9157600080fd5b610f9d85828601610e06565b9150509250929050565b600060208284031215610fb957600080fd5b600082013567ffffffffffffffff811115610fd357600080fd5b610fdf84828501610e06565b91505092915050565b600060208284031215610ffa57600080fd5b600082013567ffffffffffffffff81111561101457600080fd5b61102084828501610eb2565b91505092915050565b6000806040838503121561103c57600080fd5b600083013567ffffffffffffffff81111561105657600080fd5b61106285828601610eb2565b925050602083013567ffffffffffffffff81111561107f57600080fd5b61108b85828601610e06565b9150509250929050565b61109e8161138f565b82525050565b6110ad816113af565b82525050565b60006110be82611384565b8084526110d2816020860160208601611413565b6110db81611446565b602085010191505092915050565b600060408301600083015161110160008601826111eb565b506020830151848203602086015261111982826110b3565b9150508091505092915050565b60006101208301600083015161113f6000860182611095565b5060208301516111526020860182611095565b50604083015161116560408601826110a4565b50606083015161117860608601826111eb565b50608083015161118b60808601826111eb565b5060a083015161119e60a0860182611095565b5060c08301516111b160c08601826111eb565b5060e08301516111c460e08601826111eb565b506101008301518482036101008601526111de82826110b3565b9150508091505092915050565b6111f4816113b9565b82525050565b611203816113c3565b82525050565b600060208201905061121e6000830184611095565b92915050565b600060208201905061123960008301846110a4565b92915050565b600060808201905061125460008301876110a4565b61126160208301866111fa565b61126e60408301856110a4565b61127b60608301846110a4565b95945050505050565b6000602082019050818103600083015261129e81846110e9565b905092915050565b600060208201905081810360008301526112c08184611126565b905092915050565b60006060820190506112dd60008301866111fa565b6112ea60208301856110a4565b6112f760408301846110a4565b949350505050565b6000604051905081810181811067ffffffffffffffff8211171561132257600080fd5b8060405250919050565b600067ffffffffffffffff82111561134357600080fd5b601f19601f8301169050602081019050919050565b600067ffffffffffffffff82111561136f57600080fd5b601f19601f8301169050602081019050919050565b600081519050919050565b600073ffffffffffffffffffffffffffffffffffffffff82169050919050565b6000819050919050565b6000819050919050565b600060ff82169050919050565b600073ffffffffffffffffffffffffffffffffffffffff82169050919050565b6000819050919050565b6000819050919050565b82818337600083830152505050565b60005b83811015611431578082015181840152602081019050611416565b83811115611440576000848401525b50505050565b6000601f19601f83011690509190505600a265627a7a72305820cebd961203a6a5c73298bd71ec9a0b38423be0affe16d12123ee9414cf5d2c196c6578706572696d656e74616cf50037",
  "source": "pragma solidity ^0.4.23;\npragma experimental ABIEncoderV2;\ncontract FairPlay {\n\n \n    // timouts for dispute and for whole interaction for cashing out\n    \nstruct ChainState {\n    address merchant;\n    address client;\n    bytes32 merkelRoot;\n    uint price;\n    uint dataPacketsCount;\n    // float?\n    address contractAddress;\n    uint256 timeout;\n    uint cashOutDisputeNonce;\n    string contentDisputeDataPacket;\n}\nChainState cs;\n\n  struct AppState {\n    uint nonce;\n    string dataPacket;\n    \n  }\nevent EnterStream(address _client);\n\n   constructor(bytes32 _merketRoot, uint _dataPacketsCount) payable{\n        cs = ChainState({\n            merchant: msg.sender,\n            client: address(0),\n            merkelRoot: _merketRoot,\n            price: msg.value,\n            dataPacketsCount:  _dataPacketsCount,\n            timeout: 0,\n            contractAddress: address(this),\n            cashOutDisputeNonce: 0,\n            contentDisputeDataPacket: ''\n        });\n   \n        \n   }\n   \n//   client enters contract\n   function enter() payable public {\n       require(msg.value == cs.price);\n       cs.client = msg.sender;\n       emit EnterStream(msg.sender);\n   }\n   \n   function getChainStateData () public view returns(ChainState){\n       return cs;\n   }\n\n   \n//   convert any given app state to signable digest\n   function stateToDigest(AppState appState) public view returns (bytes32){\n        bytes32 inputAppHash = keccak256(abi.encode(appState));\n        return keccak256(cs.contractAddress, inputAppHash);\n   }    \n   \n//   client starts a \"claim\" by trying to cash out (note that client has the right to claim w/ any appState)\n   function clientInitCashOut(AppState appState) public {\n       require(msg.sender == cs.client);\n       cs.cashOutDisputeNonce = appState.nonce;\n       cs.timeout = now + 3600;\n   }\n\n    // clients claim was not disputed, can settle\n      function clientClaimFunds() public {\n          require(now > cs.timeout);\n          require(cs.cashOutDisputeNonce > 0);\n          settleWithNonce(cs.cashOutDisputeNonce);\n      }\n\n    // merchant punishes client for cashing out stale txn\n    function disputeCashOut(AppState appState, bytes sig) public{\n        require(now < cs.timeout);\n        require(cs.cashOutDisputeNonce > 0);\n        require(msg.sender == cs.merchant);\n        bytes32 digest = stateToDigest(appState);\n        require(recoverSigner(digest, sig) == counterPartyOf(msg.sender));\n        if(appState.nonce > cs.cashOutDisputeNonce){\n            // full punishment or naw?\n            settleWithNonce(cs.dataPacketsCount);\n        }\n        // else give it to him?\n   }\n\n\n    // finalizes - merchant can  always cash out with client's signature\n   function merchantCashOut(AppState appState, bytes sig) public {\n       require(msg.sender == cs.merchant);\n       if (appState.nonce == cs.dataPacketsCount){\n           settleWithNonce(appState.nonce);\n       } else {\n            bytes32 digest = stateToDigest(appState);\n            require(recoverSigner(digest, sig) == counterPartyOf(msg.sender));\n            settleWithNonce(appState.nonce);\n       }\n   }\n    // client requests merkel proof of content\n     function disputeContent(AppState appState, bytes sig){\n            require(msg.sender ==  cs.client);\n            bytes32 digest = stateToDigest(appState);\n            require(recoverSigner(digest, sig) == counterPartyOf(msg.sender));\n            cs.contentDisputeDataPacket = appState.dataPacket;\n            cs.timeout = now + 3600;\n        }\n\n// finalizes:\n        // function merchantRespondDisputeContent\n        // requrie within timeout\n        // merkelproof\n        // function merchantRespondDisputeContent()\n\n        // require(now < timeout)\n\n\n   function settleWithNonce(uint nonce) private {\n       uint costPer = cs.price / cs.dataPacketsCount;\n       cs.client.transfer(costPer * nonce);     \n       cs.merchant.transfer(address(this).balance);\n   }\n\n  \n\n   \n    function counterPartyOf(address user)public returns(address){\n        if (user == cs.merchant){\n            return cs.client;\n        } else if (user== cs.client){\n            return cs.merchant;\n        }\n        require(false);\n    }\n    \n     function splitSignature(bytes sig)\n       public\n        returns (uint8, bytes32, bytes32)\n    {\n        require(sig.length == 65);\n\n        bytes32 r;\n        bytes32 s;\n        uint8 v;\n\n        assembly {\n            // first 32 bytes, after the length prefix\n            r := mload(add(sig, 32))\n            // second 32 bytes\n            s := mload(add(sig, 64))\n            // final byte (first byte of the next 32 bytes)\n            v := byte(0, mload(add(sig, 96)))\n        }\n\n        return (v, r, s);\n    }\n\n    function recoverSigner (bytes32 message, bytes sig)\n     public\n        returns (address)\n    {\n        uint8 v;\n        bytes32 r;\n        bytes32 s;\n\n        (v, r, s) = splitSignature(sig);\n\n        return ecrecover(message, v, r, s);\n    }\n    \n\n  \n\n}",
  "sourcePath": "/Users/DZack/Boilerplates/guess_app/contracts/FairPlay.sol",
  "compiler": {
    "name": "solc",
    "version": "0.4.23+commit.124ca40d.Emscripten.clang"
  },
  "schemaVersion": "2.0.0",
  "updatedAt": "2018-12-08T03:24:54.298Z"
}