{
  "contractName": "FairPlay",
  "abi": [
    {
      "inputs": [
        {
          "name": "_merketRoot",
          "type": "bytes32"
        },
        {
          "name": "_dataPacketsCount",
          "type": "uint256"
        }
      ],
      "payable": true,
      "stateMutability": "payable",
      "type": "constructor"
    },
    {
      "anonymous": false,
      "inputs": [
        {
          "indexed": false,
          "name": "client",
          "type": "address"
        }
      ],
      "name": "EnterStream",
      "type": "event"
    },
    {
      "constant": false,
      "inputs": [],
      "name": "enter",
      "outputs": [],
      "payable": true,
      "stateMutability": "payable",
      "type": "function"
    },
    {
      "constant": true,
      "inputs": [],
      "name": "getChainStateData",
      "outputs": [
        {
          "components": [
            {
              "name": "merchant",
              "type": "address"
            },
            {
              "name": "client",
              "type": "address"
            },
            {
              "name": "merkelRoot",
              "type": "bytes32"
            },
            {
              "name": "price",
              "type": "uint256"
            },
            {
              "name": "dataPacketsCount",
              "type": "uint256"
            },
            {
              "name": "contractAddress",
              "type": "address"
            },
            {
              "name": "timeout",
              "type": "uint256"
            },
            {
              "name": "cashOutDisputeNonce",
              "type": "uint256"
            },
            {
              "name": "contentDisputeDataPacket",
              "type": "string"
            }
          ],
          "name": "",
          "type": "tuple"
        }
      ],
      "payable": false,
      "stateMutability": "view",
      "type": "function"
    },
    {
      "constant": true,
      "inputs": [
        {
          "components": [
            {
              "name": "nonce",
              "type": "uint256"
            },
            {
              "name": "dataPacket",
              "type": "string"
            }
          ],
          "name": "appState",
          "type": "tuple"
        }
      ],
      "name": "stateToDigest",
      "outputs": [
        {
          "name": "",
          "type": "bytes32"
        }
      ],
      "payable": false,
      "stateMutability": "view",
      "type": "function"
    },
    {
      "constant": false,
      "inputs": [
        {
          "components": [
            {
              "name": "nonce",
              "type": "uint256"
            },
            {
              "name": "dataPacket",
              "type": "string"
            }
          ],
          "name": "appState",
          "type": "tuple"
        }
      ],
      "name": "clientInitCashOut",
      "outputs": [],
      "payable": false,
      "stateMutability": "nonpayable",
      "type": "function"
    },
    {
      "constant": false,
      "inputs": [],
      "name": "clientClaimFunds",
      "outputs": [],
      "payable": false,
      "stateMutability": "nonpayable",
      "type": "function"
    },
    {
      "constant": false,
      "inputs": [
        {
          "components": [
            {
              "name": "nonce",
              "type": "uint256"
            },
            {
              "name": "dataPacket",
              "type": "string"
            }
          ],
          "name": "appState",
          "type": "tuple"
        },
        {
          "name": "sig",
          "type": "bytes"
        }
      ],
      "name": "disputeCashOut",
      "outputs": [],
      "payable": false,
      "stateMutability": "nonpayable",
      "type": "function"
    },
    {
      "constant": false,
      "inputs": [
        {
          "components": [
            {
              "name": "nonce",
              "type": "uint256"
            },
            {
              "name": "dataPacket",
              "type": "string"
            }
          ],
          "name": "appState",
          "type": "tuple"
        },
        {
          "name": "sig",
          "type": "bytes"
        }
      ],
      "name": "merchantCashOut",
      "outputs": [],
      "payable": false,
      "stateMutability": "nonpayable",
      "type": "function"
    },
    {
      "constant": false,
      "inputs": [
        {
          "components": [
            {
              "name": "nonce",
              "type": "uint256"
            },
            {
              "name": "dataPacket",
              "type": "string"
            }
          ],
          "name": "appState",
          "type": "tuple"
        },
        {
          "name": "sig",
          "type": "bytes"
        }
      ],
      "name": "disputeContent",
      "outputs": [],
      "payable": false,
      "stateMutability": "nonpayable",
      "type": "function"
    },
    {
      "constant": false,
      "inputs": [
        {
          "name": "_proof",
          "type": "bytes32[]"
        }
      ],
      "name": "merchantDisputeResponse",
      "outputs": [],
      "payable": false,
      "stateMutability": "nonpayable",
      "type": "function"
    },
    {
      "constant": true,
      "inputs": [
        {
          "name": "proof",
          "type": "bytes32[]"
        },
        {
          "name": "root",
          "type": "bytes32"
        },
        {
          "name": "leaf",
          "type": "bytes32"
        }
      ],
      "name": "verify",
      "outputs": [
        {
          "name": "",
          "type": "bool"
        }
      ],
      "payable": false,
      "stateMutability": "pure",
      "type": "function"
    },
    {
      "constant": false,
      "inputs": [
        {
          "name": "user",
          "type": "address"
        }
      ],
      "name": "counterPartyOf",
      "outputs": [
        {
          "name": "",
          "type": "address"
        }
      ],
      "payable": false,
      "stateMutability": "nonpayable",
      "type": "function"
    },
    {
      "constant": false,
      "inputs": [
        {
          "name": "sig",
          "type": "bytes"
        }
      ],
      "name": "splitSignature",
      "outputs": [
        {
          "name": "",
          "type": "uint8"
        },
        {
          "name": "",
          "type": "bytes32"
        },
        {
          "name": "",
          "type": "bytes32"
        }
      ],
      "payable": false,
      "stateMutability": "nonpayable",
      "type": "function"
    },
    {
      "constant": false,
      "inputs": [
        {
          "name": "message",
          "type": "bytes32"
        },
        {
          "name": "sig",
          "type": "bytes"
        }
      ],
      "name": "recoverSigner",
      "outputs": [
        {
          "name": "",
          "type": "address"
        }
      ],
      "payable": false,
      "stateMutability": "nonpayable",
      "type": "function"
    }
  ],
  "bytecode": "0x608060405260405160408062001cba8339810180604052620000259190810190620002d3565b610120604051908101604052803373ffffffffffffffffffffffffffffffffffffffff168152602001600073ffffffffffffffffffffffffffffffffffffffff168152602001836000191681526020013481526020018281526020013073ffffffffffffffffffffffffffffffffffffffff168152602001600081526020016000815260200160206040519081016040528060008152508152506000808201518160000160006101000a81548173ffffffffffffffffffffffffffffffffffffffff021916908373ffffffffffffffffffffffffffffffffffffffff16021790555060208201518160010160006101000a81548173ffffffffffffffffffffffffffffffffffffffff021916908373ffffffffffffffffffffffffffffffffffffffff16021790555060408201518160020190600019169055606082015181600301556080820151816004015560a08201518160050160006101000a81548173ffffffffffffffffffffffffffffffffffffffff021916908373ffffffffffffffffffffffffffffffffffffffff16021790555060c0820151816006015560e08201518160070155610100820151816008019080519060200190620001ec929190620001f8565b50905050505062000328565b828054600181600116156101000203166002900490600052602060002090601f016020900481019282601f106200023b57805160ff19168380011785556200026c565b828001600101855582156200026c579182015b828111156200026b5782518255916020019190600101906200024e565b5b5090506200027b91906200027f565b5090565b620002a491905b80821115620002a057600081600090555060010162000286565b5090565b90565b6000620002b5825162000314565b905092915050565b6000620002cb82516200031e565b905092915050565b60008060408385031215620002e757600080fd5b6000620002f785828601620002a7565b92505060206200030a85828601620002bd565b9150509250929050565b6000819050919050565b6000819050919050565b61198280620003386000396000f3006080604052600436106100c5576000357c0100000000000000000000000000000000000000000000000000000000900463ffffffff1680632846e1b5146100ca57806345bc3ceb146100f35780635228831c1461011c57806353bfd508146101455780635a9a49c71461016e5780638ed8da6c146101ab5780639051098b146101e857806397aba7f914610211578063a7bb58031461024e578063b55764751461028d578063dcac4125146102ca578063e71cdb70146102e1578063e97dcb621461030c575b600080fd5b3480156100d657600080fd5b506100f160048036036100ec91908101906114bc565b610316565b005b3480156100ff57600080fd5b5061011a6004803603610115919081019061133e565b610416565b005b34801561012857600080fd5b50610143600480360361013e91908101906114bc565b61055d565b005b34801561015157600080fd5b5061016c6004803603610167919081019061147b565b610644565b005b34801561017a57600080fd5b506101956004803603610190919081019061137f565b6106c2565b6040516101a291906116c6565b60405180910390f35b3480156101b757600080fd5b506101d260048036036101cd919081019061147b565b610865565b6040516101df91906116e1565b60405180910390f35b3480156101f457600080fd5b5061020f600480360361020a91908101906114bc565b61097a565b005b34801561021d57600080fd5b50610238600480360361023391908101906113e6565b610a66565b60405161024591906116ab565b60405180910390f35b34801561025a57600080fd5b506102756004803603610270919081019061143a565b610add565b60405161028493929190611785565b60405180910390f35b34801561029957600080fd5b506102b460048036036102af9190810190611315565b610b21565b6040516102c191906116ab565b60405180910390f35b3480156102d657600080fd5b506102df610c40565b005b3480156102ed57600080fd5b506102f6610c76565b6040516103039190611763565b60405180910390f35b610314610e70565b005b600080600601544210151561032a57600080fd5b6000806007015411151561033d57600080fd5b6000800160009054906101000a900473ffffffffffffffffffffffffffffffffffffffff1673ffffffffffffffffffffffffffffffffffffffff163373ffffffffffffffffffffffffffffffffffffffff1614151561039b57600080fd5b6103a483610865565b90506103af33610b21565b73ffffffffffffffffffffffffffffffffffffffff166103cf8284610a66565b73ffffffffffffffffffffffffffffffffffffffff161415156103f157600080fd5b6000600701548360000151111561041157610410600060040154610f00565b5b505050565b600080600601544210151561042a57600080fd5b6000800160009054906101000a900473ffffffffffffffffffffffffffffffffffffffff1673ffffffffffffffffffffffffffffffffffffffff163373ffffffffffffffffffffffffffffffffffffffff1614151561048857600080fd5b600080600801805460018160011615610100020316600290049050141515156104b057600080fd5b61052c826000600201546000600801604051808280546001816001161561010002031660029004801561051a5780601f106104f857610100808354040283529182019161051a565b820191906000526020600020905b815481529060010190602001808311610506575b505091505060405180910390206106c2565b905060011515811515141561054e57610549600060040154610f00565b610559565b6105586000610f00565b5b5050565b60008060010160009054906101000a900473ffffffffffffffffffffffffffffffffffffffff1673ffffffffffffffffffffffffffffffffffffffff163373ffffffffffffffffffffffffffffffffffffffff161415156105bd57600080fd5b6105c683610865565b90506105d133610b21565b73ffffffffffffffffffffffffffffffffffffffff166105f18284610a66565b73ffffffffffffffffffffffffffffffffffffffff1614151561061357600080fd5b82602001516000600801908051906020019061063092919061100d565b50610e104201600060060181905550505050565b600060010160009054906101000a900473ffffffffffffffffffffffffffffffffffffffff1673ffffffffffffffffffffffffffffffffffffffff163373ffffffffffffffffffffffffffffffffffffffff161415156106a357600080fd5b8060000151600060070181905550610e10420160006006018190555050565b600080600080849250600091505b865182101561084e5786828151811015156106e757fe5b9060200190602002015190508060001916836000191610156107a45782816040516020018083600019166000191681526020018260001916600019168152602001925050506040516020818303038152906040526040518082805190602001908083835b602083101515610770578051825260208201915060208101905060208303925061074b565b6001836020036101000a03801982511681845116808217855250505050505090500191505060405180910390209250610841565b80836040516020018083600019166000191681526020018260001916600019168152602001925050506040516020818303038152906040526040518082805190602001908083835b60208310151561081157805182526020820191506020810190506020830392506107ec565b6001836020036101000a038019825116818451168082178552505050505050905001915050604051809103902092505b81806001019250506106d0565b856000191683600019161493505050509392505050565b600080826040516020016108799190611741565b6040516020818303038152906040526040518082805190602001908083835b6020831015156108bd5780518252602082019150602081019050602083039250610898565b6001836020036101000a03801982511681845116808217855250505050505090500191505060405180910390209050600060050160009054906101000a900473ffffffffffffffffffffffffffffffffffffffff1681604051808373ffffffffffffffffffffffffffffffffffffffff1673ffffffffffffffffffffffffffffffffffffffff166c010000000000000000000000000281526014018260001916600019168152602001925050506040518091039020915050919050565b60008060000160009054906101000a900473ffffffffffffffffffffffffffffffffffffffff1673ffffffffffffffffffffffffffffffffffffffff163373ffffffffffffffffffffffffffffffffffffffff161415156109da57600080fd5b600060040154836000015114156109fd576109f88360000151610f00565b610a61565b610a0683610865565b9050610a1133610b21565b73ffffffffffffffffffffffffffffffffffffffff16610a318284610a66565b73ffffffffffffffffffffffffffffffffffffffff16141515610a5357600080fd5b610a608360000151610f00565b5b505050565b600080600080610a7585610add565b80935081945082955050505060018684848460405160008152602001604052604051610aa494939291906116fc565b60206040516020810390808403906000865af1158015610ac8573d6000803e3d6000fd5b50505060206040510351935050505092915050565b60008060008060008060418751141515610af657600080fd5b6020870151925060408701519150606087015160001a90508083839550955095505050509193909250565b60008060000160009054906101000a900473ffffffffffffffffffffffffffffffffffffffff1673ffffffffffffffffffffffffffffffffffffffff168273ffffffffffffffffffffffffffffffffffffffff161415610ba857600060010160009054906101000a900473ffffffffffffffffffffffffffffffffffffffff169050610c3b565b600060010160009054906101000a900473ffffffffffffffffffffffffffffffffffffffff1673ffffffffffffffffffffffffffffffffffffffff168273ffffffffffffffffffffffffffffffffffffffff161415610c2d576000800160009054906101000a900473ffffffffffffffffffffffffffffffffffffffff169050610c3b565b60001515610c3a57600080fd5b5b919050565b60006006015442111515610c5357600080fd5b60008060070154111515610c6657600080fd5b610c74600060070154610f00565b565b610c7e61108d565b600061012060405190810160405290816000820160009054906101000a900473ffffffffffffffffffffffffffffffffffffffff1673ffffffffffffffffffffffffffffffffffffffff1673ffffffffffffffffffffffffffffffffffffffff1681526020016001820160009054906101000a900473ffffffffffffffffffffffffffffffffffffffff1673ffffffffffffffffffffffffffffffffffffffff1673ffffffffffffffffffffffffffffffffffffffff16815260200160028201546000191660001916815260200160038201548152602001600482015481526020016005820160009054906101000a900473ffffffffffffffffffffffffffffffffffffffff1673ffffffffffffffffffffffffffffffffffffffff1673ffffffffffffffffffffffffffffffffffffffff1681526020016006820154815260200160078201548152602001600882018054600181600116156101000203166002900480601f016020809104026020016040519081016040528092919081815260200182805460018160011615610100020316600290048015610e625780601f10610e3757610100808354040283529160200191610e62565b820191906000526020600020905b815481529060010190602001808311610e4557829003601f168201915b505050505081525050905090565b60006003015434141515610e8357600080fd5b33600060010160006101000a81548173ffffffffffffffffffffffffffffffffffffffff021916908373ffffffffffffffffffffffffffffffffffffffff1602179055507f2c7b8fff535c1d02c329deb5971421ee49f0e31c288110018d149cb704797b2833604051610ef691906116ab565b60405180910390a1565b60008060040154600060030154811515610f1657fe5b049050600060010160009054906101000a900473ffffffffffffffffffffffffffffffffffffffff1673ffffffffffffffffffffffffffffffffffffffff166108fc8383029081150290604051600060405180830381858888f19350505050158015610f86573d6000803e3d6000fd5b506000800160009054906101000a900473ffffffffffffffffffffffffffffffffffffffff1673ffffffffffffffffffffffffffffffffffffffff166108fc3073ffffffffffffffffffffffffffffffffffffffff16319081150290604051600060405180830381858888f19350505050158015611008573d6000803e3d6000fd5b505050565b828054600181600116156101000203166002900490600052602060002090601f016020900481019282601f1061104e57805160ff191683800117855561107c565b8280016001018555821561107c579182015b8281111561107b578251825591602001919060010190611060565b5b509050611089919061111f565b5090565b61012060405190810160405280600073ffffffffffffffffffffffffffffffffffffffff168152602001600073ffffffffffffffffffffffffffffffffffffffff168152602001600080191681526020016000815260200160008152602001600073ffffffffffffffffffffffffffffffffffffffff1681526020016000815260200160008152602001606081525090565b61114191905b8082111561113d576000816000905550600101611125565b5090565b90565b600061115082356118c1565b905092915050565b600082601f830112151561116b57600080fd5b813561117e611179826117e9565b6117bc565b915081818352602084019350602081019050838560208402820111156111a357600080fd5b60005b838110156111d357816111b988826111dd565b8452602084019350602083019250506001810190506111a6565b5050505092915050565b60006111e982356118e1565b905092915050565b600082601f830112151561120457600080fd5b813561121761121282611811565b6117bc565b9150808252602083016020830185838301111561123357600080fd5b61123e8382846118f5565b50505092915050565b600082601f830112151561125a57600080fd5b813561126d6112688261183d565b6117bc565b9150808252602083016020830185838301111561128957600080fd5b6112948382846118f5565b50505092915050565b6000604082840312156112af57600080fd5b6112b960406117bc565b905060006112c984828501611301565b600083015250602082013567ffffffffffffffff8111156112e957600080fd5b6112f584828501611247565b60208301525092915050565b600061130d82356118eb565b905092915050565b60006020828403121561132757600080fd5b600061133584828501611144565b91505092915050565b60006020828403121561135057600080fd5b600082013567ffffffffffffffff81111561136a57600080fd5b61137684828501611158565b91505092915050565b60008060006060848603121561139457600080fd5b600084013567ffffffffffffffff8111156113ae57600080fd5b6113ba86828701611158565b93505060206113cb868287016111dd565b92505060406113dc868287016111dd565b9150509250925092565b600080604083850312156113f957600080fd5b6000611407858286016111dd565b925050602083013567ffffffffffffffff81111561142457600080fd5b611430858286016111f1565b9150509250929050565b60006020828403121561144c57600080fd5b600082013567ffffffffffffffff81111561146657600080fd5b611472848285016111f1565b91505092915050565b60006020828403121561148d57600080fd5b600082013567ffffffffffffffff8111156114a757600080fd5b6114b38482850161129d565b91505092915050565b600080604083850312156114cf57600080fd5b600083013567ffffffffffffffff8111156114e957600080fd5b6114f58582860161129d565b925050602083013567ffffffffffffffff81111561151257600080fd5b61151e858286016111f1565b9150509250929050565b61153181611874565b82525050565b61154081611894565b82525050565b61154f816118a0565b82525050565b600061156082611869565b808452611574816020860160208601611904565b61157d81611937565b602085010191505092915050565b60006040830160008301516115a3600086018261168d565b50602083015184820360208601526115bb8282611555565b9150508091505092915050565b6000610120830160008301516115e16000860182611528565b5060208301516115f46020860182611528565b5060408301516116076040860182611546565b50606083015161161a606086018261168d565b50608083015161162d608086018261168d565b5060a083015161164060a0860182611528565b5060c083015161165360c086018261168d565b5060e083015161166660e086018261168d565b506101008301518482036101008601526116808282611555565b9150508091505092915050565b611696816118aa565b82525050565b6116a5816118b4565b82525050565b60006020820190506116c06000830184611528565b92915050565b60006020820190506116db6000830184611537565b92915050565b60006020820190506116f66000830184611546565b92915050565b60006080820190506117116000830187611546565b61171e602083018661169c565b61172b6040830185611546565b6117386060830184611546565b95945050505050565b6000602082019050818103600083015261175b818461158b565b905092915050565b6000602082019050818103600083015261177d81846115c8565b905092915050565b600060608201905061179a600083018661169c565b6117a76020830185611546565b6117b46040830184611546565b949350505050565b6000604051905081810181811067ffffffffffffffff821117156117df57600080fd5b8060405250919050565b600067ffffffffffffffff82111561180057600080fd5b602082029050602081019050919050565b600067ffffffffffffffff82111561182857600080fd5b601f19601f8301169050602081019050919050565b600067ffffffffffffffff82111561185457600080fd5b601f19601f8301169050602081019050919050565b600081519050919050565b600073ffffffffffffffffffffffffffffffffffffffff82169050919050565b60008115159050919050565b6000819050919050565b6000819050919050565b600060ff82169050919050565b600073ffffffffffffffffffffffffffffffffffffffff82169050919050565b6000819050919050565b6000819050919050565b82818337600083830152505050565b60005b83811015611922578082015181840152602081019050611907565b83811115611931576000848401525b50505050565b6000601f19601f83011690509190505600a265627a7a7230582075fbfb908d117d3d679955684ad2bee23fc7fadefd736e422d5ccc83591aa5286c6578706572696d656e74616cf50037",
  "source": "pragma solidity ^0.4.23;\npragma experimental ABIEncoderV2;\ncontract FairPlay {\n\n\n    // timouts for dispute and for whole interaction for cashing out\n\nstruct ChainState {\n    address merchant;\n    address client;\n    bytes32 merkelRoot;\n    uint price;\n    uint dataPacketsCount;\n    // float?\n    address contractAddress;\n    uint256 timeout;\n    uint cashOutDisputeNonce;\n    string contentDisputeDataPacket;\n}\nChainState cs;\n\n  struct AppState {\n    uint nonce;\n    string dataPacket;\n\n  }\nevent EnterStream(address client);\n\n   constructor(bytes32 _merketRoot, uint _dataPacketsCount) payable{\n        cs = ChainState({\n            merchant: msg.sender,\n            client: address(0),\n            merkelRoot: _merketRoot,\n            price: msg.value,\n            dataPacketsCount:  _dataPacketsCount,\n            timeout: 0,\n            contractAddress: address(this),\n            cashOutDisputeNonce: 0,\n            contentDisputeDataPacket: ''\n        });\n\n\n   }\n\n//   client enters contract\n   function enter() payable public {\n       require(msg.value == cs.price);\n       cs.client = msg.sender;\n       emit EnterStream(msg.sender);\n   }\n\n   function getChainStateData () public view returns(ChainState){\n       return cs;\n   }\n\n\n//   convert any given app state to signable digest\n   function stateToDigest(AppState appState) public view returns (bytes32){\n        bytes32 inputAppHash = keccak256(abi.encode(appState));\n        return keccak256(cs.contractAddress, inputAppHash);\n   }\n\n//   client starts a \"claim\" by trying to cash out (note that client has the right to claim w/ any appState)\n   function clientInitCashOut(AppState appState) public {\n       require(msg.sender == cs.client);\n       cs.cashOutDisputeNonce = appState.nonce;\n       cs.timeout = now + 3600;\n   }\n\n    // clients claim was not disputed, can settle\n      function clientClaimFunds() public {\n          require(now > cs.timeout);\n          require(cs.cashOutDisputeNonce > 0);\n          settleWithNonce(cs.cashOutDisputeNonce);\n      }\n\n    // merchant punishes client for cashing out stale txn\n    function disputeCashOut(AppState appState, bytes sig) public{\n        require(now < cs.timeout);\n        require(cs.cashOutDisputeNonce > 0);\n        require(msg.sender == cs.merchant);\n        bytes32 digest = stateToDigest(appState);\n        require(recoverSigner(digest, sig) == counterPartyOf(msg.sender));\n        if(appState.nonce > cs.cashOutDisputeNonce){\n            // full punishment or naw?\n            settleWithNonce(cs.dataPacketsCount);\n        }\n        // else give it to him?\n   }\n\n\n    // finalizes - merchant can  always cash out with client's signature\n   function merchantCashOut(AppState appState, bytes sig) public {\n       require(msg.sender == cs.merchant);\n       if (appState.nonce == cs.dataPacketsCount){\n           settleWithNonce(appState.nonce);\n       } else {\n            bytes32 digest = stateToDigest(appState);\n            require(recoverSigner(digest, sig) == counterPartyOf(msg.sender));\n            settleWithNonce(appState.nonce);\n       }\n   }\n    // client requests merkel proof of content\n     function disputeContent(AppState appState, bytes sig){\n            require(msg.sender ==  cs.client);\n            bytes32 digest = stateToDigest(appState);\n            require(recoverSigner(digest, sig) == counterPartyOf(msg.sender));\n            cs.contentDisputeDataPacket = appState.dataPacket;\n            cs.timeout = now + 3600;\n        }\n\n// finalizes:\n        // function merchantRespondDisputeContent\n        // requrie within timeout\n        // merkelproof\n        // function merchantRespondDisputeContent()\n\n        // require(now < timeout)\n\n    function merchantDisputeResponse(\n      bytes32[] _proof\n    )\n      public\n    {\n      require(now < cs.timeout);\n      require(msg.sender == cs.merchant);\n\n      require(bytes(cs.contentDisputeDataPacket).length!= 0);\n\n      bool result = verify(_proof, cs.merkelRoot, keccak256(cs.contentDisputeDataPacket));\n\n      if (result == true) {\n        settleWithNonce(cs.dataPacketsCount);\n      } else {\n        settleWithNonce(0);\n      }\n    }\n\n    function verify(\n      bytes32[] proof,\n      bytes32 root,\n      bytes32 leaf\n    )\n      public\n      pure\n      returns (bool)\n    {\n      bytes32 computedHash = leaf;\n\n      for (uint256 i = 0; i < proof.length; i++) {\n        bytes32 proofElement = proof[i];\n\n        if (computedHash < proofElement) {\n          // Hash(current computed hash + current element of the proof)\n          computedHash = keccak256(abi.encodePacked(computedHash, proofElement));\n        } else {\n          // Hash(current element of the proof + current computed hash)\n          computedHash = keccak256(abi.encodePacked(proofElement, computedHash));\n        }\n      }\n\n      // Check if the computed hash (root) is equal to the provided root\n      return computedHash == root;\n    }\n\n\n\n   function settleWithNonce(uint nonce) private {\n       uint costPer = cs.price / cs.dataPacketsCount;\n       cs.client.transfer(costPer * nonce);\n       cs.merchant.transfer(address(this).balance);\n   }\n\n\n\n\n    function counterPartyOf(address user)public returns(address){\n        if (user == cs.merchant){\n            return cs.client;\n        } else if (user== cs.client){\n            return cs.merchant;\n        }\n        require(false);\n    }\n\n     function splitSignature(bytes sig)\n       public\n        returns (uint8, bytes32, bytes32)\n    {\n        require(sig.length == 65);\n\n        bytes32 r;\n        bytes32 s;\n        uint8 v;\n\n        assembly {\n            // first 32 bytes, after the length prefix\n            r := mload(add(sig, 32))\n            // second 32 bytes\n            s := mload(add(sig, 64))\n            // final byte (first byte of the next 32 bytes)\n            v := byte(0, mload(add(sig, 96)))\n        }\n\n        return (v, r, s);\n    }\n\n    function recoverSigner (bytes32 message, bytes sig)\n     public\n        returns (address)\n    {\n        uint8 v;\n        bytes32 r;\n        bytes32 s;\n\n        (v, r, s) = splitSignature(sig);\n\n        return ecrecover(message, v, r, s);\n    }\n\n\n\n\n}\n",
  "sourcePath": "/Users/DZack/Boilerplates/guess_app/contracts/FairPlay.sol",
  "compiler": {
    "name": "solc",
    "version": "0.4.23+commit.124ca40d.Emscripten.clang"
  },
  "schemaVersion": "2.0.0",
  "updatedAt": "2018-12-08T06:30:25.201Z"
}