{
  "contractName": "FairPlay",
  "abi": [
    {
      "inputs": [
        {
          "name": "_merketRoot",
          "type": "bytes32"
        },
        {
          "name": "_dataPacketsCount",
          "type": "uint256"
        }
      ],
      "payable": true,
      "stateMutability": "payable",
      "type": "constructor"
    },
    {
      "constant": false,
      "inputs": [],
      "name": "enter",
      "outputs": [],
      "payable": true,
      "stateMutability": "payable",
      "type": "function"
    },
    {
      "constant": true,
      "inputs": [],
      "name": "getChainStateData",
      "outputs": [
        {
          "components": [
            {
              "name": "merchant",
              "type": "address"
            },
            {
              "name": "client",
              "type": "address"
            },
            {
              "name": "merkelRoot",
              "type": "bytes32"
            },
            {
              "name": "price",
              "type": "uint256"
            },
            {
              "name": "dataPacketsCount",
              "type": "uint256"
            },
            {
              "name": "contractAddress",
              "type": "address"
            },
            {
              "name": "timeout",
              "type": "uint256"
            },
            {
              "name": "cashOutDisputeNonce",
              "type": "uint256"
            },
            {
              "name": "contentDisputeMerkelLeaf",
              "type": "bytes32"
            }
          ],
          "name": "",
          "type": "tuple"
        }
      ],
      "payable": false,
      "stateMutability": "view",
      "type": "function"
    },
    {
      "constant": false,
      "inputs": [
        {
          "components": [
            {
              "name": "nonce",
              "type": "uint256"
            },
            {
              "name": "merkelLeaf",
              "type": "bytes32"
            }
          ],
          "name": "appState",
          "type": "tuple"
        }
      ],
      "name": "stateToDigest",
      "outputs": [
        {
          "name": "",
          "type": "bytes32"
        }
      ],
      "payable": false,
      "stateMutability": "nonpayable",
      "type": "function"
    },
    {
      "constant": false,
      "inputs": [
        {
          "components": [
            {
              "name": "nonce",
              "type": "uint256"
            },
            {
              "name": "merkelLeaf",
              "type": "bytes32"
            }
          ],
          "name": "appState",
          "type": "tuple"
        }
      ],
      "name": "clientInitCashOut",
      "outputs": [],
      "payable": false,
      "stateMutability": "nonpayable",
      "type": "function"
    },
    {
      "constant": false,
      "inputs": [],
      "name": "clientClaimFunds",
      "outputs": [],
      "payable": false,
      "stateMutability": "nonpayable",
      "type": "function"
    },
    {
      "constant": false,
      "inputs": [
        {
          "components": [
            {
              "name": "nonce",
              "type": "uint256"
            },
            {
              "name": "merkelLeaf",
              "type": "bytes32"
            }
          ],
          "name": "appState",
          "type": "tuple"
        },
        {
          "name": "sig",
          "type": "bytes"
        }
      ],
      "name": "disputeCashOut",
      "outputs": [],
      "payable": false,
      "stateMutability": "nonpayable",
      "type": "function"
    },
    {
      "constant": false,
      "inputs": [
        {
          "components": [
            {
              "name": "nonce",
              "type": "uint256"
            },
            {
              "name": "merkelLeaf",
              "type": "bytes32"
            }
          ],
          "name": "appState",
          "type": "tuple"
        },
        {
          "name": "sig",
          "type": "bytes"
        }
      ],
      "name": "merchantCashOut",
      "outputs": [],
      "payable": false,
      "stateMutability": "nonpayable",
      "type": "function"
    },
    {
      "constant": false,
      "inputs": [
        {
          "components": [
            {
              "name": "nonce",
              "type": "uint256"
            },
            {
              "name": "merkelLeaf",
              "type": "bytes32"
            }
          ],
          "name": "appState",
          "type": "tuple"
        },
        {
          "name": "sig",
          "type": "bytes"
        }
      ],
      "name": "disputeContent",
      "outputs": [],
      "payable": false,
      "stateMutability": "nonpayable",
      "type": "function"
    },
    {
      "constant": false,
      "inputs": [
        {
          "name": "user",
          "type": "address"
        }
      ],
      "name": "counterPartyOf",
      "outputs": [
        {
          "name": "",
          "type": "address"
        }
      ],
      "payable": false,
      "stateMutability": "nonpayable",
      "type": "function"
    },
    {
      "constant": false,
      "inputs": [
        {
          "name": "sig",
          "type": "bytes"
        }
      ],
      "name": "splitSignature",
      "outputs": [
        {
          "name": "",
          "type": "uint8"
        },
        {
          "name": "",
          "type": "bytes32"
        },
        {
          "name": "",
          "type": "bytes32"
        }
      ],
      "payable": false,
      "stateMutability": "nonpayable",
      "type": "function"
    },
    {
      "constant": false,
      "inputs": [
        {
          "name": "message",
          "type": "bytes32"
        },
        {
          "name": "sig",
          "type": "bytes"
        }
      ],
      "name": "recoverSigner",
      "outputs": [
        {
          "name": "",
          "type": "address"
        }
      ],
      "payable": false,
      "stateMutability": "nonpayable",
      "type": "function"
    }
  ],
  "bytecode": "0x608060405260405160408061140483398101806040526100229190810190610201565b610120604051908101604052803373ffffffffffffffffffffffffffffffffffffffff168152602001600073ffffffffffffffffffffffffffffffffffffffff168152602001836000191681526020013481526020018281526020013073ffffffffffffffffffffffffffffffffffffffff168152602001600081526020016000815260200160008019168152506000808201518160000160006101000a81548173ffffffffffffffffffffffffffffffffffffffff021916908373ffffffffffffffffffffffffffffffffffffffff16021790555060208201518160010160006101000a81548173ffffffffffffffffffffffffffffffffffffffff021916908373ffffffffffffffffffffffffffffffffffffffff16021790555060408201518160020190600019169055606082015181600301556080820151816004015560a08201518160050160006101000a81548173ffffffffffffffffffffffffffffffffffffffff021916908373ffffffffffffffffffffffffffffffffffffffff16021790555060c0820151816006015560e0820151816007015561010082015181600801906000191690559050505050610251565b60006101e5825161023d565b905092915050565b60006101f98251610247565b905092915050565b6000806040838503121561021457600080fd5b6000610222858286016101d9565b9250506020610233858286016101ed565b9150509250929050565b6000819050919050565b6000819050919050565b6111a4806102606000396000f3006080604052600436106100af576000357c0100000000000000000000000000000000000000000000000000000000900463ffffffff168063020d17e5146100b45780632c9081e9146100dd57806346a1217f1461011a57806397aba7f914610143578063a7bb580314610180578063aa67b67f146101bf578063b5576475146101e8578063d9bf812914610225578063dcac41251461024e578063e71cdb7014610265578063e97dcb6214610290575b600080fd5b3480156100c057600080fd5b506100db60048036036100d69190810190610e05565b61029a565b005b3480156100e957600080fd5b5061010460048036036100ff9190810190610e05565b610318565b6040516101119190610fbf565b60405180910390f35b34801561012657600080fd5b50610141600480360361013c9190810190610e2e565b61042d565b005b34801561014f57600080fd5b5061016a60048036036101659190810190610d70565b61052d565b6040516101779190610fa4565b60405180910390f35b34801561018c57600080fd5b506101a760048036036101a29190810190610dc4565b6105a4565b6040516101b693929190611056565b60405180910390f35b3480156101cb57600080fd5b506101e660048036036101e19190810190610e2e565b6105e8565b005b3480156101f457600080fd5b5061020f600480360361020a9190810190610d47565b6106c3565b60405161021c9190610fa4565b60405180910390f35b34801561023157600080fd5b5061024c60048036036102479190810190610e2e565b6107e2565b005b34801561025a57600080fd5b506102636108ce565b005b34801561027157600080fd5b5061027a610904565b604051610287919061103a565b60405180910390f35b610298610a6e565b005b600060010160009054906101000a900473ffffffffffffffffffffffffffffffffffffffff1673ffffffffffffffffffffffffffffffffffffffff163373ffffffffffffffffffffffffffffffffffffffff161415156102f957600080fd5b8060000151600060070181905550610e10420160006006018190555050565b6000808260405160200161032c919061101f565b6040516020818303038152906040526040518082805190602001908083835b602083101515610370578051825260208201915060208101905060208303925061034b565b6001836020036101000a03801982511681845116808217855250505050505090500191505060405180910390209050600060050160009054906101000a900473ffffffffffffffffffffffffffffffffffffffff1681604051808373ffffffffffffffffffffffffffffffffffffffff1673ffffffffffffffffffffffffffffffffffffffff166c010000000000000000000000000281526014018260001916600019168152602001925050506040518091039020915050919050565b600080600601544210151561044157600080fd5b6000806007015411151561045457600080fd5b6000800160009054906101000a900473ffffffffffffffffffffffffffffffffffffffff1673ffffffffffffffffffffffffffffffffffffffff163373ffffffffffffffffffffffffffffffffffffffff161415156104b257600080fd5b6104bb83610318565b90506104c6336106c3565b73ffffffffffffffffffffffffffffffffffffffff166104e6828461052d565b73ffffffffffffffffffffffffffffffffffffffff1614151561050857600080fd5b6000600701548360000151111561052857610527600060040154610ac7565b5b505050565b60008060008061053c856105a4565b8093508194508295505050506001868484846040516000815260200160405260405161056b9493929190610fda565b60206040516020810390808403906000865af115801561058f573d6000803e3d6000fd5b50505060206040510351935050505092915050565b600080600080600080604187511415156105bd57600080fd5b6020870151925060408701519150606087015160001a90508083839550955095505050509193909250565b60008060010160009054906101000a900473ffffffffffffffffffffffffffffffffffffffff1673ffffffffffffffffffffffffffffffffffffffff163373ffffffffffffffffffffffffffffffffffffffff1614151561064857600080fd5b61065183610318565b905061065c336106c3565b73ffffffffffffffffffffffffffffffffffffffff1661067c828461052d565b73ffffffffffffffffffffffffffffffffffffffff1614151561069e57600080fd5b826020015160006008018160001916905550610e104201600060060181905550505050565b60008060000160009054906101000a900473ffffffffffffffffffffffffffffffffffffffff1673ffffffffffffffffffffffffffffffffffffffff168273ffffffffffffffffffffffffffffffffffffffff16141561074a57600060010160009054906101000a900473ffffffffffffffffffffffffffffffffffffffff1690506107dd565b600060010160009054906101000a900473ffffffffffffffffffffffffffffffffffffffff1673ffffffffffffffffffffffffffffffffffffffff168273ffffffffffffffffffffffffffffffffffffffff1614156107cf576000800160009054906101000a900473ffffffffffffffffffffffffffffffffffffffff1690506107dd565b600015156107dc57600080fd5b5b919050565b60008060000160009054906101000a900473ffffffffffffffffffffffffffffffffffffffff1673ffffffffffffffffffffffffffffffffffffffff163373ffffffffffffffffffffffffffffffffffffffff1614151561084257600080fd5b60006004015483600001511415610865576108608360000151610ac7565b6108c9565b61086e83610318565b9050610879336106c3565b73ffffffffffffffffffffffffffffffffffffffff16610899828461052d565b73ffffffffffffffffffffffffffffffffffffffff161415156108bb57600080fd5b6108c88360000151610ac7565b5b505050565b600060060154421115156108e157600080fd5b600080600701541115156108f457600080fd5b610902600060070154610ac7565b565b61090c610bd4565b600061012060405190810160405290816000820160009054906101000a900473ffffffffffffffffffffffffffffffffffffffff1673ffffffffffffffffffffffffffffffffffffffff1673ffffffffffffffffffffffffffffffffffffffff1681526020016001820160009054906101000a900473ffffffffffffffffffffffffffffffffffffffff1673ffffffffffffffffffffffffffffffffffffffff1673ffffffffffffffffffffffffffffffffffffffff16815260200160028201546000191660001916815260200160038201548152602001600482015481526020016005820160009054906101000a900473ffffffffffffffffffffffffffffffffffffffff1673ffffffffffffffffffffffffffffffffffffffff1673ffffffffffffffffffffffffffffffffffffffff16815260200160068201548152602001600782015481526020016008820154600019166000191681525050905090565b60006003015434141515610a8157600080fd5b33600060010160006101000a81548173ffffffffffffffffffffffffffffffffffffffff021916908373ffffffffffffffffffffffffffffffffffffffff160217905550565b60008060040154600060030154811515610add57fe5b049050600060010160009054906101000a900473ffffffffffffffffffffffffffffffffffffffff1673ffffffffffffffffffffffffffffffffffffffff166108fc8383029081150290604051600060405180830381858888f19350505050158015610b4d573d6000803e3d6000fd5b506000800160009054906101000a900473ffffffffffffffffffffffffffffffffffffffff1673ffffffffffffffffffffffffffffffffffffffff166108fc3073ffffffffffffffffffffffffffffffffffffffff16319081150290604051600060405180830381858888f19350505050158015610bcf573d6000803e3d6000fd5b505050565b61012060405190810160405280600073ffffffffffffffffffffffffffffffffffffffff168152602001600073ffffffffffffffffffffffffffffffffffffffff168152602001600080191681526020016000815260200160008152602001600073ffffffffffffffffffffffffffffffffffffffff1681526020016000815260200160008152602001600080191681525090565b6000610c758235611127565b905092915050565b6000610c898235611147565b905092915050565b600082601f8301121515610ca457600080fd5b8135610cb7610cb2826110ba565b61108d565b91508082526020830160208301858383011115610cd357600080fd5b610cde83828461115b565b50505092915050565b600060408284031215610cf957600080fd5b610d03604061108d565b90506000610d1384828501610d33565b6000830152506020610d2784828501610c7d565b60208301525092915050565b6000610d3f8235611151565b905092915050565b600060208284031215610d5957600080fd5b6000610d6784828501610c69565b91505092915050565b60008060408385031215610d8357600080fd5b6000610d9185828601610c7d565b925050602083013567ffffffffffffffff811115610dae57600080fd5b610dba85828601610c91565b9150509250929050565b600060208284031215610dd657600080fd5b600082013567ffffffffffffffff811115610df057600080fd5b610dfc84828501610c91565b91505092915050565b600060408284031215610e1757600080fd5b6000610e2584828501610ce7565b91505092915050565b60008060608385031215610e4157600080fd5b6000610e4f85828601610ce7565b925050604083013567ffffffffffffffff811115610e6c57600080fd5b610e7885828601610c91565b9150509250929050565b610e8b816110e6565b82525050565b610e9a81611106565b82525050565b604082016000820151610eb66000850182610f86565b506020820151610ec96020850182610e91565b50505050565b61012082016000820151610ee66000850182610e82565b506020820151610ef96020850182610e82565b506040820151610f0c6040850182610e91565b506060820151610f1f6060850182610f86565b506080820151610f326080850182610f86565b5060a0820151610f4560a0850182610e82565b5060c0820151610f5860c0850182610f86565b5060e0820151610f6b60e0850182610f86565b50610100820151610f80610100850182610e91565b50505050565b610f8f81611110565b82525050565b610f9e8161111a565b82525050565b6000602082019050610fb96000830184610e82565b92915050565b6000602082019050610fd46000830184610e91565b92915050565b6000608082019050610fef6000830187610e91565b610ffc6020830186610f95565b6110096040830185610e91565b6110166060830184610e91565b95945050505050565b60006040820190506110346000830184610ea0565b92915050565b6000610120820190506110506000830184610ecf565b92915050565b600060608201905061106b6000830186610f95565b6110786020830185610e91565b6110856040830184610e91565b949350505050565b6000604051905081810181811067ffffffffffffffff821117156110b057600080fd5b8060405250919050565b600067ffffffffffffffff8211156110d157600080fd5b601f19601f8301169050602081019050919050565b600073ffffffffffffffffffffffffffffffffffffffff82169050919050565b6000819050919050565b6000819050919050565b600060ff82169050919050565b600073ffffffffffffffffffffffffffffffffffffffff82169050919050565b6000819050919050565b6000819050919050565b828183376000838301525050505600a265627a7a72305820b06dbad3d88796fdf0eaa4aba780c20bc732158ebaf85baed66fc385ac1370d76c6578706572696d656e74616cf50037",
  "source": "pragma solidity ^0.4.23;\npragma experimental ABIEncoderV2;\ncontract FairPlay {\n\n \n    // timouts for dispute and for whole interaction for cashing out\n    \nstruct ChainState {\n    address merchant;\n    address client;\n    bytes32 merkelRoot;\n    uint price;\n    uint dataPacketsCount;\n    // float?\n    address contractAddress;\n    uint256 timeout;\n    uint cashOutDisputeNonce;\n    bytes32 contentDisputeMerkelLeaf;\n}\nChainState cs;\n\n  struct AppState {\n    uint nonce;\n    bytes32 merkelLeaf;\n    \n  }\n  \n   constructor(bytes32 _merketRoot, uint _dataPacketsCount) payable{\n        cs = ChainState({\n            merchant: msg.sender,\n            client: address(0),\n            merkelRoot: _merketRoot,\n            price: msg.value,\n            dataPacketsCount:  _dataPacketsCount,\n            timeout: 0,\n            contractAddress: address(this),\n            cashOutDisputeNonce: 0,\n            contentDisputeMerkelLeaf: ''\n        });\n   \n        \n   }\n   \n//   client enters contract\n   function enter() payable public {\n       require(msg.value == cs.price);\n       cs.client = msg.sender;\n   }\n   \n   function getChainStateData () public view returns(ChainState){\n       return cs;\n   }\n\n   \n//   convert any given app state to signable digest\n   function stateToDigest(AppState appState) public returns (bytes32){\n        bytes32 inputAppHash = keccak256(abi.encode(appState));\n        return keccak256(cs.contractAddress, inputAppHash);\n   }    \n   \n//   client starts a \"claim\" by trying to cash out (note that client has the right to claim w/ any appState)\n   function clientInitCashOut(AppState appState) public {\n       require(msg.sender == cs.client);\n       cs.cashOutDisputeNonce = appState.nonce;\n       cs.timeout = now + 3600;\n   }\n\n    // clients claim was not disputed, can settle\n      function clientClaimFunds() public {\n          require(now > cs.timeout);\n          require(cs.cashOutDisputeNonce > 0);\n          settleWithNonce(cs.cashOutDisputeNonce);\n      }\n\n    // merchant punishes client for cashing out stale txn\n    function disputeCashOut(AppState appState, bytes sig) public{\n        require(now < cs.timeout);\n        require(cs.cashOutDisputeNonce > 0);\n        require(msg.sender == cs.merchant);\n        bytes32 digest = stateToDigest(appState);\n        require(recoverSigner(digest, sig) == counterPartyOf(msg.sender));\n        if(appState.nonce > cs.cashOutDisputeNonce){\n            // full punishment or naw?\n            settleWithNonce(cs.dataPacketsCount);\n        }\n        // else give it to him?\n   }\n\n\n    // finalizes - merchant can  always cash out with client's signature\n   function merchantCashOut(AppState appState, bytes sig) public {\n       require(msg.sender == cs.merchant);\n       if (appState.nonce == cs.dataPacketsCount){\n           settleWithNonce(appState.nonce);\n       } else {\n            bytes32 digest = stateToDigest(appState);\n            require(recoverSigner(digest, sig) == counterPartyOf(msg.sender));\n            settleWithNonce(appState.nonce);\n       }\n   }\n    // client requests merkel proof of content\n     function disputeContent(AppState appState, bytes sig){\n            require(msg.sender ==  cs.client);\n            bytes32 digest = stateToDigest(appState);\n            require(recoverSigner(digest, sig) == counterPartyOf(msg.sender));\n            cs.contentDisputeMerkelLeaf = appState.merkelLeaf;\n            cs.timeout = now + 3600;\n        }\n\n// finalizes:\n        // function merchantRespondDisputeContent\n        // requrie within timeout\n        // merkelproof\n        // function merchantRespondDisputeContent()\n\n        // require(now < timeout)\n\n\n   function settleWithNonce(uint nonce) private {\n       uint costPer = cs.price / cs.dataPacketsCount;\n       cs.client.transfer(costPer * nonce);     \n       cs.merchant.transfer(address(this).balance);\n   }\n\n  \n\n   \n    function counterPartyOf(address user)public returns(address){\n        if (user == cs.merchant){\n            return cs.client;\n        } else if (user== cs.client){\n            return cs.merchant;\n        }\n        require(false);\n    }\n    \n     function splitSignature(bytes sig)\n       public\n        returns (uint8, bytes32, bytes32)\n    {\n        require(sig.length == 65);\n\n        bytes32 r;\n        bytes32 s;\n        uint8 v;\n\n        assembly {\n            // first 32 bytes, after the length prefix\n            r := mload(add(sig, 32))\n            // second 32 bytes\n            s := mload(add(sig, 64))\n            // final byte (first byte of the next 32 bytes)\n            v := byte(0, mload(add(sig, 96)))\n        }\n\n        return (v, r, s);\n    }\n\n    function recoverSigner (bytes32 message, bytes sig)\n     public\n        returns (address)\n    {\n        uint8 v;\n        bytes32 r;\n        bytes32 s;\n\n        (v, r, s) = splitSignature(sig);\n\n        return ecrecover(message, v, r, s);\n    }\n    \n\n  \n\n}",
  "sourcePath": "/Users/DZack/Boilerplates/guess_app/contracts/FairPlay.sol",
  "compiler": {
    "name": "solc",
    "version": "0.4.23+commit.124ca40d.Emscripten.clang"
  },
  "schemaVersion": "2.0.0",
  "updatedAt": "2018-12-08T00:51:43.137Z"
}