{
  "contractName": "FairPlay",
  "abi": [
    {
      "constant": true,
      "inputs": [],
      "name": "timeout",
      "outputs": [
        {
          "name": "",
          "type": "uint256"
        }
      ],
      "payable": false,
      "stateMutability": "view",
      "type": "function"
    },
    {
      "inputs": [
        {
          "name": "_merketRoot",
          "type": "bytes32"
        },
        {
          "name": "_dataPacketsCount",
          "type": "uint256"
        }
      ],
      "payable": true,
      "stateMutability": "payable",
      "type": "constructor"
    },
    {
      "constant": false,
      "inputs": [],
      "name": "enter",
      "outputs": [],
      "payable": true,
      "stateMutability": "payable",
      "type": "function"
    },
    {
      "constant": false,
      "inputs": [
        {
          "components": [
            {
              "name": "clientBalance",
              "type": "uint256"
            },
            {
              "name": "merchantBalance",
              "type": "uint256"
            },
            {
              "name": "nonce",
              "type": "uint256"
            },
            {
              "name": "merkelLeaf",
              "type": "bytes32"
            },
            {
              "name": "mutualClose",
              "type": "bool"
            }
          ],
          "name": "appState",
          "type": "tuple"
        }
      ],
      "name": "stateToDigest",
      "outputs": [
        {
          "name": "",
          "type": "bytes32"
        }
      ],
      "payable": false,
      "stateMutability": "nonpayable",
      "type": "function"
    },
    {
      "constant": false,
      "inputs": [
        {
          "components": [
            {
              "name": "clientBalance",
              "type": "uint256"
            },
            {
              "name": "merchantBalance",
              "type": "uint256"
            },
            {
              "name": "nonce",
              "type": "uint256"
            },
            {
              "name": "merkelLeaf",
              "type": "bytes32"
            },
            {
              "name": "mutualClose",
              "type": "bool"
            }
          ],
          "name": "appState",
          "type": "tuple"
        },
        {
          "name": "sig",
          "type": "bytes"
        }
      ],
      "name": "cashOut",
      "outputs": [],
      "payable": true,
      "stateMutability": "payable",
      "type": "function"
    },
    {
      "constant": false,
      "inputs": [
        {
          "components": [
            {
              "name": "clientBalance",
              "type": "uint256"
            },
            {
              "name": "merchantBalance",
              "type": "uint256"
            },
            {
              "name": "nonce",
              "type": "uint256"
            },
            {
              "name": "merkelLeaf",
              "type": "bytes32"
            },
            {
              "name": "mutualClose",
              "type": "bool"
            }
          ],
          "name": "appState",
          "type": "tuple"
        },
        {
          "name": "sig",
          "type": "bytes"
        }
      ],
      "name": "disputeContent",
      "outputs": [],
      "payable": false,
      "stateMutability": "nonpayable",
      "type": "function"
    },
    {
      "constant": false,
      "inputs": [
        {
          "components": [
            {
              "name": "clientBalance",
              "type": "uint256"
            },
            {
              "name": "merchantBalance",
              "type": "uint256"
            },
            {
              "name": "nonce",
              "type": "uint256"
            },
            {
              "name": "merkelLeaf",
              "type": "bytes32"
            },
            {
              "name": "mutualClose",
              "type": "bool"
            }
          ],
          "name": "appState",
          "type": "tuple"
        },
        {
          "name": "sig",
          "type": "bytes"
        }
      ],
      "name": "disputeCashOut",
      "outputs": [],
      "payable": false,
      "stateMutability": "nonpayable",
      "type": "function"
    },
    {
      "constant": false,
      "inputs": [],
      "name": "claimFunds",
      "outputs": [],
      "payable": true,
      "stateMutability": "payable",
      "type": "function"
    },
    {
      "constant": false,
      "inputs": [
        {
          "name": "user",
          "type": "address"
        }
      ],
      "name": "counterPartyOf",
      "outputs": [
        {
          "name": "",
          "type": "address"
        }
      ],
      "payable": false,
      "stateMutability": "nonpayable",
      "type": "function"
    },
    {
      "constant": false,
      "inputs": [
        {
          "name": "sig",
          "type": "bytes"
        }
      ],
      "name": "splitSignature",
      "outputs": [
        {
          "name": "",
          "type": "uint8"
        },
        {
          "name": "",
          "type": "bytes32"
        },
        {
          "name": "",
          "type": "bytes32"
        }
      ],
      "payable": false,
      "stateMutability": "nonpayable",
      "type": "function"
    },
    {
      "constant": false,
      "inputs": [
        {
          "name": "message",
          "type": "bytes32"
        },
        {
          "name": "sig",
          "type": "bytes"
        }
      ],
      "name": "recoverSigner",
      "outputs": [
        {
          "name": "",
          "type": "address"
        }
      ],
      "payable": false,
      "stateMutability": "nonpayable",
      "type": "function"
    }
  ],
  "bytecode": "0x6080604052604051604080611020833981018060405261002291908101906100eb565b816002816000191690555034600381905550336000806101000a81548173ffffffffffffffffffffffffffffffffffffffff021916908373ffffffffffffffffffffffffffffffffffffffff1602179055508060048190555030600560006101000a81548173ffffffffffffffffffffffffffffffffffffffff021916908373ffffffffffffffffffffffffffffffffffffffff160217905550505061013b565b60006100cf8251610127565b905092915050565b60006100e38251610131565b905092915050565b600080604083850312156100fe57600080fd5b600061010c858286016100c3565b925050602061011d858286016100d7565b9150509250929050565b6000819050919050565b6000819050919050565b610ed68061014a6000396000f3006080604052600436106100a4576000357c0100000000000000000000000000000000000000000000000000000000900463ffffffff1680630e57cf76146100a95780634517f9d0146100d257806347cdd03d146100ee57806370dea79a1461012b57806397aba7f914610156578063a7bb580314610193578063ac307773146101d2578063b5576475146101dc578063ca8943f314610219578063e97dcb6214610242575b600080fd5b3480156100b557600080fd5b506100d060048036036100cb9190810190610bb8565b61024c565b005b6100ec60048036036100e79190810190610bb8565b61039b565b005b3480156100fa57600080fd5b5061011560048036036101109190810190610b8f565b610473565b6040516101229190610cda565b60405180910390f35b34801561013757600080fd5b50610140610585565b60405161014d9190610d55565b60405180910390f35b34801561016257600080fd5b5061017d60048036036101789190810190610afa565b61058b565b60405161018a9190610cbf565b60405180910390f35b34801561019f57600080fd5b506101ba60048036036101b59190810190610b4e565b610602565b6040516101c993929190610d70565b60405180910390f35b6101da610646565b005b3480156101e857600080fd5b5061020360048036036101fe9190810190610ad1565b610765565b6040516102109190610cbf565b60405180910390f35b34801561022557600080fd5b50610240600480360361023b9190810190610bb8565b610857565b005b61024a610950565b005b6000600160009054906101000a900473ffffffffffffffffffffffffffffffffffffffff1673ffffffffffffffffffffffffffffffffffffffff163373ffffffffffffffffffffffffffffffffffffffff161415156102aa57600080fd5b6102b383610473565b90506000809054906101000a900473ffffffffffffffffffffffffffffffffffffffff1673ffffffffffffffffffffffffffffffffffffffff166102f7828461058b565b73ffffffffffffffffffffffffffffffffffffffff1614151561031957600080fd5b826060015160088160001916905550600260035402836000018181525050600083602001818152505082600a6000820151816000015560208201518160010155604082015181600201556060820151816003019060001916905560808201518160040160006101000a81548160ff021916908315150217905550905050505050565b6000600760009054906101000a900460ff161515156103b957600080fd5b6103c283610473565b90506103cd33610765565b73ffffffffffffffffffffffffffffffffffffffff166103ed828461058b565b73ffffffffffffffffffffffffffffffffffffffff1614151561040f57600080fd5b82600a6000820151816000015560208201518160010155604082015181600201556060820151816003019060001916905560808201518160040160006101000a81548160ff021916908315150217905550905050610e104201600681905550505050565b600080826040516020016104879190610d3a565b6040516020818303038152906040526040518082805190602001908083835b6020831015156104cb57805182526020820191506020810190506020830392506104a6565b6001836020036101000a03801982511681845116808217855250505050505090500191505060405180910390209050600560009054906101000a900473ffffffffffffffffffffffffffffffffffffffff1681604051808373ffffffffffffffffffffffffffffffffffffffff1673ffffffffffffffffffffffffffffffffffffffff166c010000000000000000000000000281526014018260001916600019168152602001925050506040518091039020915050919050565b60065481565b60008060008061059a85610602565b809350819450829550505050600186848484604051600081526020016040526040516105c99493929190610cf5565b60206040516020810390808403906000865af11580156105ed573d6000803e3d6000fd5b50505060206040510351935050505092915050565b6000806000806000806041875114151561061b57600080fd5b6020870151925060408701519150606087015160001a90508083839550955095505050509193909250565b600960009054906101000a900460ff16151561068857600760009054906101000a900460ff16151561067757600080fd5b6006544211151561068757600080fd5b5b600160009054906101000a900473ffffffffffffffffffffffffffffffffffffffff1673ffffffffffffffffffffffffffffffffffffffff166108fc600a600001549081150290604051600060405180830381858888f193505050501580156106f5573d6000803e3d6000fd5b506000809054906101000a900473ffffffffffffffffffffffffffffffffffffffff1673ffffffffffffffffffffffffffffffffffffffff166108fc600a600101549081150290604051600060405180830381858888f19350505050158015610762573d6000803e3d6000fd5b50565b60008060009054906101000a900473ffffffffffffffffffffffffffffffffffffffff1673ffffffffffffffffffffffffffffffffffffffff168273ffffffffffffffffffffffffffffffffffffffff1614156107e657600160009054906101000a900473ffffffffffffffffffffffffffffffffffffffff169050610852565b600160009054906101000a900473ffffffffffffffffffffffffffffffffffffffff1673ffffffffffffffffffffffffffffffffffffffff168273ffffffffffffffffffffffffffffffffffffffff16141561084457819050610852565b6000151561085157600080fd5b5b919050565b6000600760009054906101000a900460ff16151561087457600080fd5b61087d83610473565b905061088833610765565b73ffffffffffffffffffffffffffffffffffffffff166108a8828461058b565b73ffffffffffffffffffffffffffffffffffffffff161415156108ca57600080fd5b600a600201548360400151111561094b5782600a6000820151816000015560208201518160010155604082015181600201556060820151816003019060001916905560808201518160040160006101000a81548160ff0219169083151502179055509050506001600960006101000a81548160ff0219169083151502179055505b505050565b6003543414151561096057600080fd5b33600160006101000a81548173ffffffffffffffffffffffffffffffffffffffff021916908373ffffffffffffffffffffffffffffffffffffffff160217905550565b60006109af8235610e4d565b905092915050565b60006109c38235610e6d565b905092915050565b60006109d78235610e79565b905092915050565b600082601f83011215156109f257600080fd5b8135610a05610a0082610dd4565b610da7565b91508082526020830160208301858383011115610a2157600080fd5b610a2c838284610e8d565b50505092915050565b600060a08284031215610a4757600080fd5b610a5160a0610da7565b90506000610a6184828501610abd565b6000830152506020610a7584828501610abd565b6020830152506040610a8984828501610abd565b6040830152506060610a9d848285016109cb565b6060830152506080610ab1848285016109b7565b60808301525092915050565b6000610ac98235610e83565b905092915050565b600060208284031215610ae357600080fd5b6000610af1848285016109a3565b91505092915050565b60008060408385031215610b0d57600080fd5b6000610b1b858286016109cb565b925050602083013567ffffffffffffffff811115610b3857600080fd5b610b44858286016109df565b9150509250929050565b600060208284031215610b6057600080fd5b600082013567ffffffffffffffff811115610b7a57600080fd5b610b86848285016109df565b91505092915050565b600060a08284031215610ba157600080fd5b6000610baf84828501610a35565b91505092915050565b60008060c08385031215610bcb57600080fd5b6000610bd985828601610a35565b92505060a083013567ffffffffffffffff811115610bf657600080fd5b610c02858286016109df565b9150509250929050565b610c1581610e00565b82525050565b610c2481610e20565b82525050565b610c3381610e2c565b82525050565b60a082016000820151610c4f6000850182610ca1565b506020820151610c626020850182610ca1565b506040820151610c756040850182610ca1565b506060820151610c886060850182610c2a565b506080820151610c9b6080850182610c1b565b50505050565b610caa81610e36565b82525050565b610cb981610e40565b82525050565b6000602082019050610cd46000830184610c0c565b92915050565b6000602082019050610cef6000830184610c2a565b92915050565b6000608082019050610d0a6000830187610c2a565b610d176020830186610cb0565b610d246040830185610c2a565b610d316060830184610c2a565b95945050505050565b600060a082019050610d4f6000830184610c39565b92915050565b6000602082019050610d6a6000830184610ca1565b92915050565b6000606082019050610d856000830186610cb0565b610d926020830185610c2a565b610d9f6040830184610c2a565b949350505050565b6000604051905081810181811067ffffffffffffffff82111715610dca57600080fd5b8060405250919050565b600067ffffffffffffffff821115610deb57600080fd5b601f19601f8301169050602081019050919050565b600073ffffffffffffffffffffffffffffffffffffffff82169050919050565b60008115159050919050565b6000819050919050565b6000819050919050565b600060ff82169050919050565b600073ffffffffffffffffffffffffffffffffffffffff82169050919050565b60008115159050919050565b6000819050919050565b6000819050919050565b828183376000838301525050505600a265627a7a72305820537a3a94aca0e02e23b6617be68cc22a4da9c6d2f46926c7a2cf1e20b901d3ee6c6578706572696d656e74616cf50037",
  "source": "pragma solidity ^0.4.23;\npragma experimental ABIEncoderV2;\ncontract FairPlay {\n\n    address merchant;\n    address client;\n    bytes32 merkelRoot;\n    uint price;\n    uint dataPacketsCount;\n    // float?\n    address contractAddress;\n    uint256  public timeout;\n    bool cashOutDispute;\n    bytes32 contentDispute;\n    bool settled;\n\n    // timouts for dispute and for whole interaction for cashing out\n    \n\n\n  struct AppState {\n    uint clientBalance;\n    uint merchantBalance;\n    uint nonce;\n    // content, not merkelleef\n    bytes32 merkelLeaf;\n    bool mutualClose;\n    \n  }\n  \n  AppState cashOutState; \n   constructor(bytes32 _merketRoot, uint _dataPacketsCount) payable{\n        merkelRoot = _merketRoot;\n        price = msg.value;\n        merchant = msg.sender;\n        dataPacketsCount = _dataPacketsCount;\n        contractAddress = address(this);\n        \n   }\n   \n   function enter() payable public {\n       require(msg.value == price);\n       client = msg.sender;\n   }\n   \n   function stateToDigest(AppState appState) public returns (bytes32){\n        bytes32 inputAppHash = keccak256(abi.encode(appState));\n        return keccak256(contractAddress, inputAppHash);\n   }    \n   \n   function cashOut(AppState appState, bytes sig) payable public{\n       require(!cashOutDispute );\n    //   !contentDispute);\n       bytes32 digest = stateToDigest(appState);\n       require(recoverSigner(digest, sig) == counterPartyOf(msg.sender));\n       cashOutState = appState;\n       timeout = now + 3600;\n   }\n   \n   function disputeContent(AppState appState, bytes sig){\n       require(msg.sender == client);\n       bytes32 digest = stateToDigest(appState);\n       require(recoverSigner(digest, sig) == merchant);\n       contentDispute = appState.merkelLeaf;\n       \n       appState.clientBalance = price * 2;\n       appState.merchantBalance = 0;\n       cashOutState = appState;\n   }\n   \n//   respondDisputeContent()\n   \n   function disputeCashOut(AppState appState, bytes sig){\n        // bunch of require not settleds everywhere\n        require(cashOutDispute);\n        bytes32 digest = stateToDigest(appState);\n        require(recoverSigner(digest, sig) == counterPartyOf(msg.sender));\n        if(appState.nonce > cashOutState.nonce){\n            // full punishment or naw?\n            cashOutState = appState;\n            settled = true;\n        }\n   }\n   \n   function claimFunds() payable public {\n       if (!settled){\n           require(cashOutDispute);\n        //   || contentDispute);\n           require((now > timeout));\n       }\n\n       client.transfer(cashOutState.clientBalance);\n       merchant.transfer(cashOutState.merchantBalance);\n       \n   }\n   \n    function counterPartyOf(address user)public returns(address){\n        if (user == merchant){\n            return client;\n        } else if (user== client){\n            return user;\n        }\n        require(false);\n    }\n     function splitSignature(bytes sig)\n       public\n        returns (uint8, bytes32, bytes32)\n    {\n        require(sig.length == 65);\n\n        bytes32 r;\n        bytes32 s;\n        uint8 v;\n\n        assembly {\n            // first 32 bytes, after the length prefix\n            r := mload(add(sig, 32))\n            // second 32 bytes\n            s := mload(add(sig, 64))\n            // final byte (first byte of the next 32 bytes)\n            v := byte(0, mload(add(sig, 96)))\n        }\n\n        return (v, r, s);\n    }\n\n    function recoverSigner (bytes32 message, bytes sig)\n     public\n        returns (address)\n    {\n        uint8 v;\n        bytes32 r;\n        bytes32 s;\n\n        (v, r, s) = splitSignature(sig);\n\n        return ecrecover(message, v, r, s);\n    }\n    \n    \n  \n    \n  \n\n}",
  "sourcePath": "/Users/DZack/Boilerplates/guess_app/contracts/GuessNumber.sol",
  "compiler": {
    "name": "solc",
    "version": "0.4.23+commit.124ca40d.Emscripten.clang"
  },
  "schemaVersion": "2.0.0",
  "updatedAt": "2018-12-07T16:58:59.373Z"
}